{
  "abi": [
    {
      "type": "constructor",
      "inputs": [],
      "stateMutability": "nonpayable"
    },
    {
      "type": "function",
      "name": "DEFAULT_ADMIN_ROLE",
      "inputs": [],
      "outputs": [
        {
          "name": "",
          "type": "bytes32",
          "internalType": "bytes32"
        }
      ],
      "stateMutability": "view"
    },
    {
      "type": "function",
      "name": "GUARDIAN_ROLE",
      "inputs": [],
      "outputs": [
        {
          "name": "",
          "type": "bytes32",
          "internalType": "bytes32"
        }
      ],
      "stateMutability": "view"
    },
    {
      "type": "function",
      "name": "OPERATOR_ROLE",
      "inputs": [],
      "outputs": [
        {
          "name": "",
          "type": "bytes32",
          "internalType": "bytes32"
        }
      ],
      "stateMutability": "view"
    },
    {
      "type": "function",
      "name": "UPGRADE_INTERFACE_VERSION",
      "inputs": [],
      "outputs": [
        {
          "name": "",
          "type": "string",
          "internalType": "string"
        }
      ],
      "stateMutability": "view"
    },
    {
      "type": "function",
      "name": "VERSION",
      "inputs": [],
      "outputs": [
        {
          "name": "",
          "type": "string",
          "internalType": "string"
        }
      ],
      "stateMutability": "pure"
    },
    {
      "type": "function",
      "name": "claimRewards",
      "inputs": [
        {
          "name": "validator",
          "type": "address",
          "internalType": "address"
        }
      ],
      "outputs": [],
      "stateMutability": "nonpayable"
    },
    {
      "type": "function",
      "name": "delegate",
      "inputs": [
        {
          "name": "amount",
          "type": "uint256",
          "internalType": "uint256"
        },
        {
          "name": "validator",
          "type": "address",
          "internalType": "address"
        }
      ],
      "outputs": [],
      "stateMutability": "nonpayable"
    },
    {
      "type": "function",
      "name": "deposit",
      "inputs": [
        {
          "name": "amount",
          "type": "uint256",
          "internalType": "uint256"
        }
      ],
      "outputs": [],
      "stateMutability": "nonpayable"
    },
    {
      "type": "function",
      "name": "depositAndDelegate",
      "inputs": [
        {
          "name": "amount",
          "type": "uint256",
          "internalType": "uint256"
        },
        {
          "name": "validator",
          "type": "address",
          "internalType": "address"
        }
      ],
      "outputs": [],
      "stateMutability": "nonpayable"
    },
    {
      "type": "function",
      "name": "fuelToken",
      "inputs": [],
      "outputs": [
        {
          "name": "",
          "type": "address",
          "internalType": "contract IERC20"
        }
      ],
      "stateMutability": "view"
    },
    {
      "type": "function",
      "name": "getRoleAdmin",
      "inputs": [
        {
          "name": "role",
          "type": "bytes32",
          "internalType": "bytes32"
        }
      ],
      "outputs": [
        {
          "name": "",
          "type": "bytes32",
          "internalType": "bytes32"
        }
      ],
      "stateMutability": "view"
    },
    {
      "type": "function",
      "name": "grantRole",
      "inputs": [
        {
          "name": "role",
          "type": "bytes32",
          "internalType": "bytes32"
        },
        {
          "name": "account",
          "type": "address",
          "internalType": "address"
        }
      ],
      "outputs": [],
      "stateMutability": "nonpayable"
    },
    {
      "type": "function",
      "name": "hasRole",
      "inputs": [
        {
          "name": "role",
          "type": "bytes32",
          "internalType": "bytes32"
        },
        {
          "name": "account",
          "type": "address",
          "internalType": "address"
        }
      ],
      "outputs": [
        {
          "name": "",
          "type": "bool",
          "internalType": "bool"
        }
      ],
      "stateMutability": "view"
    },
    {
      "type": "function",
      "name": "initialize",
      "inputs": [
        {
          "name": "_params",
          "type": "tuple",
          "internalType": "struct Rig.InitParameters",
          "components": [
            {
              "name": "sequencerInterface",
              "type": "address",
              "internalType": "address"
            },
            {
              "name": "fuelToken",
              "type": "address",
              "internalType": "address"
            }
          ]
        }
      ],
      "outputs": [],
      "stateMutability": "nonpayable"
    },
    {
      "type": "function",
      "name": "multicall",
      "inputs": [
        {
          "name": "data",
          "type": "bytes[]",
          "internalType": "bytes[]"
        }
      ],
      "outputs": [
        {
          "name": "results",
          "type": "bytes[]",
          "internalType": "bytes[]"
        }
      ],
      "stateMutability": "nonpayable"
    },
    {
      "type": "function",
      "name": "pause",
      "inputs": [],
      "outputs": [],
      "stateMutability": "nonpayable"
    },
    {
      "type": "function",
      "name": "paused",
      "inputs": [],
      "outputs": [
        {
          "name": "",
          "type": "bool",
          "internalType": "bool"
        }
      ],
      "stateMutability": "view"
    },
    {
      "type": "function",
      "name": "proxiableUUID",
      "inputs": [],
      "outputs": [
        {
          "name": "",
          "type": "bytes32",
          "internalType": "bytes32"
        }
      ],
      "stateMutability": "view"
    },
    {
      "type": "function",
      "name": "renounceRole",
      "inputs": [
        {
          "name": "role",
          "type": "bytes32",
          "internalType": "bytes32"
        },
        {
          "name": "callerConfirmation",
          "type": "address",
          "internalType": "address"
        }
      ],
      "outputs": [],
      "stateMutability": "nonpayable"
    },
    {
      "type": "function",
      "name": "revokeRole",
      "inputs": [
        {
          "name": "role",
          "type": "bytes32",
          "internalType": "bytes32"
        },
        {
          "name": "account",
          "type": "address",
          "internalType": "address"
        }
      ],
      "outputs": [],
      "stateMutability": "nonpayable"
    },
    {
      "type": "function",
      "name": "rigTreasury",
      "inputs": [],
      "outputs": [
        {
          "name": "",
          "type": "address",
          "internalType": "address"
        }
      ],
      "stateMutability": "view"
    },
    {
      "type": "function",
      "name": "sequencerInterface",
      "inputs": [],
      "outputs": [
        {
          "name": "",
          "type": "address",
          "internalType": "contract ISequencerInterface"
        }
      ],
      "stateMutability": "view"
    },
    {
      "type": "function",
      "name": "setRigTreasury",
      "inputs": [
        {
          "name": "treasury",
          "type": "address",
          "internalType": "address"
        }
      ],
      "outputs": [],
      "stateMutability": "nonpayable"
    },
    {
      "type": "function",
      "name": "supportsInterface",
      "inputs": [
        {
          "name": "interfaceId",
          "type": "bytes4",
          "internalType": "bytes4"
        }
      ],
      "outputs": [
        {
          "name": "",
          "type": "bool",
          "internalType": "bool"
        }
      ],
      "stateMutability": "view"
    },
    {
      "type": "function",
      "name": "transfer",
      "inputs": [
        {
          "name": "amount",
          "type": "uint256",
          "internalType": "uint256"
        }
      ],
      "outputs": [],
      "stateMutability": "nonpayable"
    },
    {
      "type": "function",
      "name": "unbond",
      "inputs": [
        {
          "name": "amount",
          "type": "uint256",
          "internalType": "uint256"
        },
        {
          "name": "validator",
          "type": "address",
          "internalType": "address"
        }
      ],
      "outputs": [],
      "stateMutability": "nonpayable"
    },
    {
      "type": "function",
      "name": "unpause",
      "inputs": [],
      "outputs": [],
      "stateMutability": "nonpayable"
    },
    {
      "type": "function",
      "name": "upgradeToAndCall",
      "inputs": [
        {
          "name": "newImplementation",
          "type": "address",
          "internalType": "address"
        },
        {
          "name": "data",
          "type": "bytes",
          "internalType": "bytes"
        }
      ],
      "outputs": [],
      "stateMutability": "payable"
    },
    {
      "type": "event",
      "name": "Initialized",
      "inputs": [
        {
          "name": "version",
          "type": "uint64",
          "indexed": false,
          "internalType": "uint64"
        }
      ],
      "anonymous": false
    },
    {
      "type": "event",
      "name": "Paused",
      "inputs": [
        {
          "name": "account",
          "type": "address",
          "indexed": false,
          "internalType": "address"
        }
      ],
      "anonymous": false
    },
    {
      "type": "event",
      "name": "RigTreasurySet",
      "inputs": [
        {
          "name": "treasury",
          "type": "address",
          "indexed": true,
          "internalType": "address"
        }
      ],
      "anonymous": false
    },
    {
      "type": "event",
      "name": "RoleAdminChanged",
      "inputs": [
        {
          "name": "role",
          "type": "bytes32",
          "indexed": true,
          "internalType": "bytes32"
        },
        {
          "name": "previousAdminRole",
          "type": "bytes32",
          "indexed": true,
          "internalType": "bytes32"
        },
        {
          "name": "newAdminRole",
          "type": "bytes32",
          "indexed": true,
          "internalType": "bytes32"
        }
      ],
      "anonymous": false
    },
    {
      "type": "event",
      "name": "RoleGranted",
      "inputs": [
        {
          "name": "role",
          "type": "bytes32",
          "indexed": true,
          "internalType": "bytes32"
        },
        {
          "name": "account",
          "type": "address",
          "indexed": true,
          "internalType": "address"
        },
        {
          "name": "sender",
          "type": "address",
          "indexed": true,
          "internalType": "address"
        }
      ],
      "anonymous": false
    },
    {
      "type": "event",
      "name": "RoleRevoked",
      "inputs": [
        {
          "name": "role",
          "type": "bytes32",
          "indexed": true,
          "internalType": "bytes32"
        },
        {
          "name": "account",
          "type": "address",
          "indexed": true,
          "internalType": "address"
        },
        {
          "name": "sender",
          "type": "address",
          "indexed": true,
          "internalType": "address"
        }
      ],
      "anonymous": false
    },
    {
      "type": "event",
      "name": "Unpaused",
      "inputs": [
        {
          "name": "account",
          "type": "address",
          "indexed": false,
          "internalType": "address"
        }
      ],
      "anonymous": false
    },
    {
      "type": "event",
      "name": "Upgraded",
      "inputs": [
        {
          "name": "implementation",
          "type": "address",
          "indexed": true,
          "internalType": "address"
        }
      ],
      "anonymous": false
    },
    {
      "type": "error",
      "name": "AccessControlBadConfirmation",
      "inputs": []
    },
    {
      "type": "error",
      "name": "AccessControlUnauthorizedAccount",
      "inputs": [
        {
          "name": "account",
          "type": "address",
          "internalType": "address"
        },
        {
          "name": "neededRole",
          "type": "bytes32",
          "internalType": "bytes32"
        }
      ]
    },
    {
      "type": "error",
      "name": "AddressEmptyCode",
      "inputs": [
        {
          "name": "target",
          "type": "address",
          "internalType": "address"
        }
      ]
    },
    {
      "type": "error",
      "name": "ERC1967InvalidImplementation",
      "inputs": [
        {
          "name": "implementation",
          "type": "address",
          "internalType": "address"
        }
      ]
    },
    {
      "type": "error",
      "name": "ERC1967NonPayable",
      "inputs": []
    },
    {
      "type": "error",
      "name": "EnforcedPause",
      "inputs": []
    },
    {
      "type": "error",
      "name": "ExpectedPause",
      "inputs": []
    },
    {
      "type": "error",
      "name": "FailedCall",
      "inputs": []
    },
    {
      "type": "error",
      "name": "InvalidFuelToken",
      "inputs": []
    },
    {
      "type": "error",
      "name": "InvalidInitialization",
      "inputs": []
    },
    {
      "type": "error",
      "name": "InvalidRigTreasury",
      "inputs": []
    },
    {
      "type": "error",
      "name": "InvalidSequencerInterface",
      "inputs": []
    },
    {
      "type": "error",
      "name": "NotInitializing",
      "inputs": []
    },
    {
      "type": "error",
      "name": "RigTreasuryNotSet",
      "inputs": []
    },
    {
      "type": "error",
      "name": "UUPSUnauthorizedCallContext",
      "inputs": []
    },
    {
      "type": "error",
      "name": "UUPSUnsupportedProxiableUUID",
      "inputs": [
        {
          "name": "slot",
          "type": "bytes32",
          "internalType": "bytes32"
        }
      ]
    }
  ],
  "bytecode": {
    "object": "0x60a06040523073ffffffffffffffffffffffffffffffffffffffff1660809073ffffffffffffffffffffffffffffffffffffffff16815250348015610042575f80fd5b5061005161005660201b60201c565b6101d1565b5f61006561015460201b60201c565b9050805f0160089054906101000a900460ff16156100af576040517ff92ee8a900000000000000000000000000000000000000000000000000000000815260040160405180910390fd5b67ffffffffffffffff8016815f015f9054906101000a900467ffffffffffffffff1667ffffffffffffffff16146101515767ffffffffffffffff815f015f6101000a81548167ffffffffffffffff021916908367ffffffffffffffff1602179055507fc7f505b2f371ae2175ee4913f4499e1f2633a7b5936321eed1cdaeb6115181d267ffffffffffffffff60405161014891906101b8565b60405180910390a15b50565b5f8061016461016d60201b60201c565b90508091505090565b5f7ff0c57e16840df040f15088dc2f81fe391c3923bec73e23a9662efc9c229c6a005f1b905090565b5f67ffffffffffffffff82169050919050565b6101b281610196565b82525050565b5f6020820190506101cb5f8301846101a9565b92915050565b608051612d216101f75f395f8181611a1f01528181611a740152611c330152612d215ff3fe6080604052600436106101b6575f3560e01c80638456cb59116100eb578063c47e4df011610089578063d88862ad11610063578063d88862ad146105a8578063ef5cfb8c146105d2578063f5b541a6146105fa578063ffa1ad7414610624576101b6565b8063c47e4df01461052e578063d18e8bd314610556578063d547741f14610580576101b6565b8063ac9650d8116100c5578063ac9650d814610478578063ad3cb1cc146104b4578063b6a597dd146104de578063b6b55f2514610506576101b6565b80638456cb59146103fc57806391d1485414610412578063a217fddf1461044e576101b6565b806336568abe116101585780634f1ef286116101325780634f1ef2861461036457806352d1902d146103805780635b5f0547146103aa5780635c975abb146103d2576101b6565b806336568abe146102fc5780633f4ba83a146103245780634381aca71461033a576101b6565b8063248a9ca311610194578063248a9ca31461024657806324ea54f4146102825780632f2ff15d146102ac57806332d39d1f146102d4576101b6565b806301ffc9a7146101ba57806308bbb824146101f657806312514bba1461021e575b5f80fd5b3480156101c5575f80fd5b506101e060048036038101906101db919061222f565b61064e565b6040516101ed9190612274565b60405180910390f35b348015610201575f80fd5b5061021c6004803603810190610217919061231a565b6106c7565b005b348015610229575f80fd5b50610244600480360381019061023f9190612358565b610785565b005b348015610251575f80fd5b5061026c600480360381019061026791906123b6565b6108e9565b60405161027991906123f0565b60405180910390f35b34801561028d575f80fd5b50610296610913565b6040516102a391906123f0565b60405180910390f35b3480156102b7575f80fd5b506102d260048036038101906102cd9190612409565b610937565b005b3480156102df575f80fd5b506102fa60048036038101906102f5919061231a565b610959565b005b348015610307575f80fd5b50610322600480360381019061031d9190612409565b610ad3565b005b34801561032f575f80fd5b50610338610b4e565b005b348015610345575f80fd5b5061034e610b83565b60405161035b91906124a2565b60405180910390f35b61037e600480360381019061037991906125f7565b610ba6565b005b34801561038b575f80fd5b50610394610bc5565b6040516103a191906123f0565b60405180910390f35b3480156103b5575f80fd5b506103d060048036038101906103cb919061231a565b610bf6565b005b3480156103dd575f80fd5b506103e6610cb4565b6040516103f39190612274565b60405180910390f35b348015610407575f80fd5b50610410610cd6565b005b34801561041d575f80fd5b5061043860048036038101906104339190612409565b610d0b565b6040516104459190612274565b60405180910390f35b348015610459575f80fd5b50610462610d7c565b60405161046f91906123f0565b60405180910390f35b348015610483575f80fd5b5061049e600480360381019061049991906126ae565b610d82565b6040516104ab9190612814565b60405180910390f35b3480156104bf575f80fd5b506104c8610f60565b6040516104d59190612886565b60405180910390f35b3480156104e9575f80fd5b5061050460048036038101906104ff91906128c8565b610f99565b005b348015610511575f80fd5b5061052c60048036038101906105279190612358565b6112d4565b005b348015610539575f80fd5b50610554600480360381019061054f91906128f3565b61144b565b005b348015610561575f80fd5b5061056a61154b565b604051610577919061292d565b60405180910390f35b34801561058b575f80fd5b506105a660048036038101906105a19190612409565b611570565b005b3480156105b3575f80fd5b506105bc611592565b6040516105c99190612966565b60405180910390f35b3480156105dd575f80fd5b506105f860048036038101906105f391906128f3565b6115b7565b005b348015610605575f80fd5b5061060e611672565b60405161061b91906123f0565b60405180910390f35b34801561062f575f80fd5b50610638611696565b6040516106459190612886565b60405180910390f35b5f7f7965db0b000000000000000000000000000000000000000000000000000000007bffffffffffffffffffffffffffffffffffffffffffffffffffffffff1916827bffffffffffffffffffffffffffffffffffffffffffffffffffffffff191614806106c057506106bf826116d3565b5b9050919050565b6106cf61173c565b7f97667070c54ef182b0f5858b034beac1b6f3089aa2d3188bb1e8929f4fa9b9296106f98161177d565b5f8054906101000a900473ffffffffffffffffffffffffffffffffffffffff1673ffffffffffffffffffffffffffffffffffffffff166308bbb82484846040518363ffffffff1660e01b815260040161075392919061298e565b5f604051808303815f87803b15801561076a575f80fd5b505af115801561077c573d5f803e3d5ffd5b50505050505050565b61078d61173c565b7f97667070c54ef182b0f5858b034beac1b6f3089aa2d3188bb1e8929f4fa9b9296107b78161177d565b5f73ffffffffffffffffffffffffffffffffffffffff1660025f9054906101000a900473ffffffffffffffffffffffffffffffffffffffff1673ffffffffffffffffffffffffffffffffffffffff160361083d576040517f2e5b91d900000000000000000000000000000000000000000000000000000000815260040160405180910390fd5b5f8054906101000a900473ffffffffffffffffffffffffffffffffffffffff1673ffffffffffffffffffffffffffffffffffffffff1663a9059cbb60025f9054906101000a900473ffffffffffffffffffffffffffffffffffffffff16846040518363ffffffff1660e01b81526004016108b89291906129b5565b5f604051808303815f87803b1580156108cf575f80fd5b505af11580156108e1573d5f803e3d5ffd5b505050505050565b5f806108f3611791565b9050805f015f8481526020019081526020015f2060010154915050919050565b7f55435dd261a4b9b3364963f7738a7a662ad9c84396d64be3365284bb7f0a504181565b610940826108e9565b6109498161177d565b61095383836117b8565b50505050565b61096161173c565b7f97667070c54ef182b0f5858b034beac1b6f3089aa2d3188bb1e8929f4fa9b92961098b8161177d565b60015f9054906101000a900473ffffffffffffffffffffffffffffffffffffffff1673ffffffffffffffffffffffffffffffffffffffff1663095ea7b35f8054906101000a900473ffffffffffffffffffffffffffffffffffffffff16856040518363ffffffff1660e01b8152600401610a069291906129b5565b6020604051808303815f875af1158015610a22573d5f803e3d5ffd5b505050506040513d601f19601f82011682018060405250810190610a469190612a06565b505f8054906101000a900473ffffffffffffffffffffffffffffffffffffffff1673ffffffffffffffffffffffffffffffffffffffff166332d39d1f84846040518363ffffffff1660e01b8152600401610aa192919061298e565b5f604051808303815f87803b158015610ab8575f80fd5b505af1158015610aca573d5f803e3d5ffd5b50505050505050565b610adb6118b0565b73ffffffffffffffffffffffffffffffffffffffff168173ffffffffffffffffffffffffffffffffffffffff1614610b3f576040517f6697b23200000000000000000000000000000000000000000000000000000000815260040160405180910390fd5b610b4982826118b7565b505050565b7f55435dd261a4b9b3364963f7738a7a662ad9c84396d64be3365284bb7f0a5041610b788161177d565b610b806119af565b50565b5f8054906101000a900473ffffffffffffffffffffffffffffffffffffffff1681565b610bae611a1d565b610bb782611b03565b610bc18282611b13565b5050565b5f610bce611c31565b7f360894a13ba1a3210667c828492db98dca3e2076cc3735a920a3ca505d382bbc5f1b905090565b610bfe61173c565b7f97667070c54ef182b0f5858b034beac1b6f3089aa2d3188bb1e8929f4fa9b929610c288161177d565b5f8054906101000a900473ffffffffffffffffffffffffffffffffffffffff1673ffffffffffffffffffffffffffffffffffffffff16635b5f054784846040518363ffffffff1660e01b8152600401610c8292919061298e565b5f604051808303815f87803b158015610c99575f80fd5b505af1158015610cab573d5f803e3d5ffd5b50505050505050565b5f80610cbe611cb8565b9050805f015f9054906101000a900460ff1691505090565b7f55435dd261a4b9b3364963f7738a7a662ad9c84396d64be3365284bb7f0a5041610d008161177d565b610d08611cdf565b50565b5f80610d15611791565b9050805f015f8581526020019081526020015f205f015f8473ffffffffffffffffffffffffffffffffffffffff1673ffffffffffffffffffffffffffffffffffffffff1681526020019081526020015f205f9054906101000a900460ff1691505092915050565b5f801b81565b60605f610d8d6118b0565b73ffffffffffffffffffffffffffffffffffffffff163373ffffffffffffffffffffffffffffffffffffffff1614610e2d575f36610dc9611d4e565b5f369050610dd79190612a5e565b908092610de693929190612a99565b8080601f0160208091040260200160405190810160405280939291908181526020018383808284375f81840152601f19601f82011690508083019250505050505050610e7b565b5f67ffffffffffffffff811115610e4757610e466124d3565b5b6040519080825280601f01601f191660200182016040528015610e795781602001600182028036833780820191505090505b505b90508383905067ffffffffffffffff811115610e9a57610e996124d3565b5b604051908082528060200260200182016040528015610ecd57816020015b6060815260200190600190039081610eb85790505b5091505f5b84849050811015610f5857610f2d30868684818110610ef457610ef3612ad3565b5b9050602002810190610f069190612b0c565b85604051602001610f1993929190612bcc565b604051602081830303815290604052611d52565b838281518110610f4057610f3f612ad3565b5b60200260200101819052508080600101915050610ed2565b505092915050565b6040518060400160405280600581526020017f352e302e3000000000000000000000000000000000000000000000000000000081525081565b5f610fa2611dd2565b90505f815f0160089054906101000a900460ff161590505f825f015f9054906101000a900467ffffffffffffffff1690505f808267ffffffffffffffff16148015610fea5750825b90505f60018367ffffffffffffffff1614801561101d57505f3073ffffffffffffffffffffffffffffffffffffffff163b145b90508115801561102b575080155b15611062576040517ff92ee8a900000000000000000000000000000000000000000000000000000000815260040160405180910390fd5b6001855f015f6101000a81548167ffffffffffffffff021916908367ffffffffffffffff16021790555083156110af576001855f0160086101000a81548160ff0219169083151502179055505b6110b7611de5565b6110bf611def565b6110c7611df9565b6110cf611e03565b6110e25f801b6110dd6118b0565b6117b8565b505f73ffffffffffffffffffffffffffffffffffffffff16865f01602081019061110c91906128f3565b73ffffffffffffffffffffffffffffffffffffffff1603611159576040517ffa75d24e00000000000000000000000000000000000000000000000000000000815260040160405180910390fd5b5f73ffffffffffffffffffffffffffffffffffffffff1686602001602081019061118391906128f3565b73ffffffffffffffffffffffffffffffffffffffff16036111d0576040517f9b2a0a0400000000000000000000000000000000000000000000000000000000815260040160405180910390fd5b855f0160208101906111e291906128f3565b5f806101000a81548173ffffffffffffffffffffffffffffffffffffffff021916908373ffffffffffffffffffffffffffffffffffffffff16021790555085602001602081019061123391906128f3565b60015f6101000a81548173ffffffffffffffffffffffffffffffffffffffff021916908373ffffffffffffffffffffffffffffffffffffffff16021790555083156112cc575f855f0160086101000a81548160ff0219169083151502179055507fc7f505b2f371ae2175ee4913f4499e1f2633a7b5936321eed1cdaeb6115181d260016040516112c39190612c3d565b60405180910390a15b505050505050565b6112dc61173c565b7f97667070c54ef182b0f5858b034beac1b6f3089aa2d3188bb1e8929f4fa9b9296113068161177d565b60015f9054906101000a900473ffffffffffffffffffffffffffffffffffffffff1673ffffffffffffffffffffffffffffffffffffffff1663095ea7b35f8054906101000a900473ffffffffffffffffffffffffffffffffffffffff16846040518363ffffffff1660e01b81526004016113819291906129b5565b6020604051808303815f875af115801561139d573d5f803e3d5ffd5b505050506040513d601f19601f820116820180604052508101906113c19190612a06565b505f8054906101000a900473ffffffffffffffffffffffffffffffffffffffff1673ffffffffffffffffffffffffffffffffffffffff1663b6b55f25836040518263ffffffff1660e01b815260040161141a9190612c56565b5f604051808303815f87803b158015611431575f80fd5b505af1158015611443573d5f803e3d5ffd5b505050505050565b61145361173c565b5f801b61145f8161177d565b5f73ffffffffffffffffffffffffffffffffffffffff168273ffffffffffffffffffffffffffffffffffffffff16036114c4576040517fd43f801200000000000000000000000000000000000000000000000000000000815260040160405180910390fd5b8160025f6101000a81548173ffffffffffffffffffffffffffffffffffffffff021916908373ffffffffffffffffffffffffffffffffffffffff1602179055508173ffffffffffffffffffffffffffffffffffffffff167fb6dc399aafe6d77eff1d74fea92394f5ed3eb0b409353adc432bf69a22c42fe560405160405180910390a25050565b60025f9054906101000a900473ffffffffffffffffffffffffffffffffffffffff1681565b611579826108e9565b6115828161177d565b61158c83836118b7565b50505050565b60015f9054906101000a900473ffffffffffffffffffffffffffffffffffffffff1681565b6115bf61173c565b7f97667070c54ef182b0f5858b034beac1b6f3089aa2d3188bb1e8929f4fa9b9296115e98161177d565b5f8054906101000a900473ffffffffffffffffffffffffffffffffffffffff1673ffffffffffffffffffffffffffffffffffffffff1663ef5cfb8c836040518263ffffffff1660e01b8152600401611641919061292d565b5f604051808303815f87803b158015611658575f80fd5b505af115801561166a573d5f803e3d5ffd5b505050505050565b7f97667070c54ef182b0f5858b034beac1b6f3089aa2d3188bb1e8929f4fa9b92981565b60606040518060400160405280600581526020017f302e312e30000000000000000000000000000000000000000000000000000000815250905090565b5f7f01ffc9a7000000000000000000000000000000000000000000000000000000007bffffffffffffffffffffffffffffffffffffffffffffffffffffffff1916827bffffffffffffffffffffffffffffffffffffffffffffffffffffffff1916149050919050565b611744610cb4565b1561177b576040517fd93c066500000000000000000000000000000000000000000000000000000000815260040160405180910390fd5b565b61178e816117896118b0565b611e0d565b50565b5f7f02dd7bc7dec4dceedda775e58dd541e08a116c6c53815c0bd028192f7b626800905090565b5f806117c2611791565b90506117ce8484610d0b565b6118a5576001815f015f8681526020019081526020015f205f015f8573ffffffffffffffffffffffffffffffffffffffff1673ffffffffffffffffffffffffffffffffffffffff1681526020019081526020015f205f6101000a81548160ff0219169083151502179055506118416118b0565b73ffffffffffffffffffffffffffffffffffffffff168373ffffffffffffffffffffffffffffffffffffffff16857f2f8788117e7eff1d82e926ec794901d17c78024a50270940304540a733656f0d60405160405180910390a460019150506118aa565b5f9150505b92915050565b5f33905090565b5f806118c1611791565b90506118cd8484610d0b565b156119a4575f815f015f8681526020019081526020015f205f015f8573ffffffffffffffffffffffffffffffffffffffff1673ffffffffffffffffffffffffffffffffffffffff1681526020019081526020015f205f6101000a81548160ff0219169083151502179055506119406118b0565b73ffffffffffffffffffffffffffffffffffffffff168373ffffffffffffffffffffffffffffffffffffffff16857ff6391f5c32d9c69d2a47ea670b442974b53935d1edc7fd64eb21e047a839171b60405160405180910390a460019150506119a9565b5f9150505b92915050565b6119b7611e5e565b5f6119c0611cb8565b90505f815f015f6101000a81548160ff0219169083151502179055507f5db9ee0a495bf2e6ff9c91a7834c1ba4fdd244a5e8aa4e537bd38aeae4b073aa611a056118b0565b604051611a12919061292d565b60405180910390a150565b7f000000000000000000000000000000000000000000000000000000000000000073ffffffffffffffffffffffffffffffffffffffff163073ffffffffffffffffffffffffffffffffffffffff161480611aca57507f000000000000000000000000000000000000000000000000000000000000000073ffffffffffffffffffffffffffffffffffffffff16611ab1611e9e565b73ffffffffffffffffffffffffffffffffffffffff1614155b15611b01576040517fe07c8dba00000000000000000000000000000000000000000000000000000000815260040160405180910390fd5b565b5f801b611b0f8161177d565b5050565b8173ffffffffffffffffffffffffffffffffffffffff166352d1902d6040518163ffffffff1660e01b8152600401602060405180830381865afa925050508015611b7b57506040513d601f19601f82011682018060405250810190611b789190612c83565b60015b611bbc57816040517f4c9c8ce3000000000000000000000000000000000000000000000000000000008152600401611bb3919061292d565b60405180910390fd5b7f360894a13ba1a3210667c828492db98dca3e2076cc3735a920a3ca505d382bbc5f1b8114611c2257806040517faa1d49a4000000000000000000000000000000000000000000000000000000008152600401611c1991906123f0565b60405180910390fd5b611c2c8383611ef1565b505050565b7f000000000000000000000000000000000000000000000000000000000000000073ffffffffffffffffffffffffffffffffffffffff163073ffffffffffffffffffffffffffffffffffffffff1614611cb6576040517fe07c8dba00000000000000000000000000000000000000000000000000000000815260040160405180910390fd5b565b5f7fcd5ed15c6e187e77e9aee88184c21f4f2182ab5827cb3b7e07fbedcd63f03300905090565b611ce761173c565b5f611cf0611cb8565b90506001815f015f6101000a81548160ff0219169083151502179055507f62e78cea01bee320cd4e420270b5ea74000d11b0c9f74754ebdbfc544b05a258611d366118b0565b604051611d43919061292d565b60405180910390a150565b5f90565b60605f808473ffffffffffffffffffffffffffffffffffffffff1684604051611d7b9190612cae565b5f60405180830381855af49150503d805f8114611db3576040519150601f19603f3d011682016040523d82523d5f602084013e611db8565b606091505b5091509150611dc8858383611f63565b9250505092915050565b5f80611ddc611ff0565b90508091505090565b611ded612019565b565b611df7612019565b565b611e01612019565b565b611e0b612019565b565b611e178282610d0b565b611e5a5780826040517fe2517d3f000000000000000000000000000000000000000000000000000000008152600401611e51929190612cc4565b60405180910390fd5b5050565b611e66610cb4565b611e9c576040517f8dfc202b00000000000000000000000000000000000000000000000000000000815260040160405180910390fd5b565b5f611eca7f360894a13ba1a3210667c828492db98dca3e2076cc3735a920a3ca505d382bbc5f1b612059565b5f015f9054906101000a900473ffffffffffffffffffffffffffffffffffffffff16905090565b611efa82612062565b8173ffffffffffffffffffffffffffffffffffffffff167fbc7cd75a20ee27fd9adebab32041f755214dbc6bffa90cc0225b39da2e5c2d3b60405160405180910390a25f81511115611f5657611f508282611d52565b50611f5f565b611f5e61212b565b5b5050565b606082611f7857611f7382612167565b611fe8565b5f8251148015611f9e57505f8473ffffffffffffffffffffffffffffffffffffffff163b145b15611fe057836040517f9996b315000000000000000000000000000000000000000000000000000000008152600401611fd7919061292d565b60405180910390fd5b819050611fe9565b5b9392505050565b5f7ff0c57e16840df040f15088dc2f81fe391c3923bec73e23a9662efc9c229c6a005f1b905090565b6120216121ab565b612057576040517fd7e6bcf800000000000000000000000000000000000000000000000000000000815260040160405180910390fd5b565b5f819050919050565b5f8173ffffffffffffffffffffffffffffffffffffffff163b036120bd57806040517f4c9c8ce30000000000000000000000000000000000000000000000000000000081526004016120b4919061292d565b60405180910390fd5b806120e97f360894a13ba1a3210667c828492db98dca3e2076cc3735a920a3ca505d382bbc5f1b612059565b5f015f6101000a81548173ffffffffffffffffffffffffffffffffffffffff021916908373ffffffffffffffffffffffffffffffffffffffff16021790555050565b5f341115612165576040517fb398979f00000000000000000000000000000000000000000000000000000000815260040160405180910390fd5b565b5f815111156121795780518082602001fd5b6040517fd6bda27500000000000000000000000000000000000000000000000000000000815260040160405180910390fd5b5f6121b4611dd2565b5f0160089054906101000a900460ff16905090565b5f604051905090565b5f80fd5b5f80fd5b5f7fffffffff0000000000000000000000000000000000000000000000000000000082169050919050565b61220e816121da565b8114612218575f80fd5b50565b5f8135905061222981612205565b92915050565b5f60208284031215612244576122436121d2565b5b5f6122518482850161221b565b91505092915050565b5f8115159050919050565b61226e8161225a565b82525050565b5f6020820190506122875f830184612265565b92915050565b5f819050919050565b61229f8161228d565b81146122a9575f80fd5b50565b5f813590506122ba81612296565b92915050565b5f73ffffffffffffffffffffffffffffffffffffffff82169050919050565b5f6122e9826122c0565b9050919050565b6122f9816122df565b8114612303575f80fd5b50565b5f81359050612314816122f0565b92915050565b5f80604083850312156123305761232f6121d2565b5b5f61233d858286016122ac565b925050602061234e85828601612306565b9150509250929050565b5f6020828403121561236d5761236c6121d2565b5b5f61237a848285016122ac565b91505092915050565b5f819050919050565b61239581612383565b811461239f575f80fd5b50565b5f813590506123b08161238c565b92915050565b5f602082840312156123cb576123ca6121d2565b5b5f6123d8848285016123a2565b91505092915050565b6123ea81612383565b82525050565b5f6020820190506124035f8301846123e1565b92915050565b5f806040838503121561241f5761241e6121d2565b5b5f61242c858286016123a2565b925050602061243d85828601612306565b9150509250929050565b5f819050919050565b5f61246a612465612460846122c0565b612447565b6122c0565b9050919050565b5f61247b82612450565b9050919050565b5f61248c82612471565b9050919050565b61249c81612482565b82525050565b5f6020820190506124b55f830184612493565b92915050565b5f80fd5b5f80fd5b5f601f19601f8301169050919050565b7f4e487b71000000000000000000000000000000000000000000000000000000005f52604160045260245ffd5b612509826124c3565b810181811067ffffffffffffffff82111715612528576125276124d3565b5b80604052505050565b5f61253a6121c9565b90506125468282612500565b919050565b5f67ffffffffffffffff821115612565576125646124d3565b5b61256e826124c3565b9050602081019050919050565b828183375f83830152505050565b5f61259b6125968461254b565b612531565b9050828152602081018484840111156125b7576125b66124bf565b5b6125c284828561257b565b509392505050565b5f82601f8301126125de576125dd6124bb565b5b81356125ee848260208601612589565b91505092915050565b5f806040838503121561260d5761260c6121d2565b5b5f61261a85828601612306565b925050602083013567ffffffffffffffff81111561263b5761263a6121d6565b5b612647858286016125ca565b9150509250929050565b5f80fd5b5f80fd5b5f8083601f84011261266e5761266d6124bb565b5b8235905067ffffffffffffffff81111561268b5761268a612651565b5b6020830191508360208202830111156126a7576126a6612655565b5b9250929050565b5f80602083850312156126c4576126c36121d2565b5b5f83013567ffffffffffffffff8111156126e1576126e06121d6565b5b6126ed85828601612659565b92509250509250929050565b5f81519050919050565b5f82825260208201905092915050565b5f819050602082019050919050565b5f81519050919050565b5f82825260208201905092915050565b8281835e5f83830152505050565b5f61275482612722565b61275e818561272c565b935061276e81856020860161273c565b612777816124c3565b840191505092915050565b5f61278d838361274a565b905092915050565b5f602082019050919050565b5f6127ab826126f9565b6127b58185612703565b9350836020820285016127c785612713565b805f5b8581101561280257848403895281516127e38582612782565b94506127ee83612795565b925060208a019950506001810190506127ca565b50829750879550505050505092915050565b5f6020820190508181035f83015261282c81846127a1565b905092915050565b5f81519050919050565b5f82825260208201905092915050565b5f61285882612834565b612862818561283e565b935061287281856020860161273c565b61287b816124c3565b840191505092915050565b5f6020820190508181035f83015261289e818461284e565b905092915050565b5f80fd5b5f604082840312156128bf576128be6128a6565b5b81905092915050565b5f604082840312156128dd576128dc6121d2565b5b5f6128ea848285016128aa565b91505092915050565b5f60208284031215612908576129076121d2565b5b5f61291584828501612306565b91505092915050565b612927816122df565b82525050565b5f6020820190506129405f83018461291e565b92915050565b5f61295082612471565b9050919050565b61296081612946565b82525050565b5f6020820190506129795f830184612957565b92915050565b6129888161228d565b82525050565b5f6040820190506129a15f83018561297f565b6129ae602083018461291e565b9392505050565b5f6040820190506129c85f83018561291e565b6129d5602083018461297f565b9392505050565b6129e58161225a565b81146129ef575f80fd5b50565b5f81519050612a00816129dc565b92915050565b5f60208284031215612a1b57612a1a6121d2565b5b5f612a28848285016129f2565b91505092915050565b7f4e487b71000000000000000000000000000000000000000000000000000000005f52601160045260245ffd5b5f612a688261228d565b9150612a738361228d565b9250828203905081811115612a8b57612a8a612a31565b5b92915050565b5f80fd5b5f80fd5b5f8085851115612aac57612aab612a91565b5b83861115612abd57612abc612a95565b5b6001850283019150848603905094509492505050565b7f4e487b71000000000000000000000000000000000000000000000000000000005f52603260045260245ffd5b5f80fd5b5f80fd5b5f80fd5b5f8083356001602003843603038112612b2857612b27612b00565b5b80840192508235915067ffffffffffffffff821115612b4a57612b49612b04565b5b602083019250600182023603831315612b6657612b65612b08565b5b509250929050565b5f81905092915050565b5f612b838385612b6e565b9350612b9083858461257b565b82840190509392505050565b5f612ba682612722565b612bb08185612b6e565b9350612bc081856020860161273c565b80840191505092915050565b5f612bd8828587612b78565b9150612be48284612b9c565b9150819050949350505050565b5f819050919050565b5f67ffffffffffffffff82169050919050565b5f612c27612c22612c1d84612bf1565b612447565b612bfa565b9050919050565b612c3781612c0d565b82525050565b5f602082019050612c505f830184612c2e565b92915050565b5f602082019050612c695f83018461297f565b92915050565b5f81519050612c7d8161238c565b92915050565b5f60208284031215612c9857612c976121d2565b5b5f612ca584828501612c6f565b91505092915050565b5f612cb98284612b9c565b915081905092915050565b5f604082019050612cd75f83018561291e565b612ce460208301846123e1565b939250505056fea26469706673582212204a81bb3b23e4c2ddec0b535b197a74b16c57bc4299f5f4fdfca253242ed75ad864736f6c634300081a0033",
    "linkReferences": {}
  },
  "methodIdentifiers": {
    "DEFAULT_ADMIN_ROLE()": "a217fddf",
    "GUARDIAN_ROLE()": "24ea54f4",
    "OPERATOR_ROLE()": "f5b541a6",
    "UPGRADE_INTERFACE_VERSION()": "ad3cb1cc",
    "VERSION()": "ffa1ad74",
    "claimRewards(address)": "ef5cfb8c",
    "delegate(uint256,address)": "08bbb824",
    "deposit(uint256)": "b6b55f25",
    "depositAndDelegate(uint256,address)": "32d39d1f",
    "fuelToken()": "d88862ad",
    "getRoleAdmin(bytes32)": "248a9ca3",
    "grantRole(bytes32,address)": "2f2ff15d",
    "hasRole(bytes32,address)": "91d14854",
    "initialize((address,address))": "b6a597dd",
    "multicall(bytes[])": "ac9650d8",
    "pause()": "8456cb59",
    "paused()": "5c975abb",
    "proxiableUUID()": "52d1902d",
    "renounceRole(bytes32,address)": "36568abe",
    "revokeRole(bytes32,address)": "d547741f",
    "rigTreasury()": "d18e8bd3",
    "sequencerInterface()": "4381aca7",
    "setRigTreasury(address)": "c47e4df0",
    "supportsInterface(bytes4)": "01ffc9a7",
    "transfer(uint256)": "12514bba",
    "unbond(uint256,address)": "5b5f0547",
    "unpause()": "3f4ba83a",
    "upgradeToAndCall(address,bytes)": "4f1ef286"
  },
  "id": 87
}